{
    "_format": "hh-sol-artifact-1",
    "contractName": "nft_contract",
    "sourceName": "contracts/nft_proj.sol",
    "abi": [
        {
            "inputs": [],
            "stateMutability": "nonpayable",
            "type": "constructor"
        },
        {
            "anonymous": false,
            "inputs": [
                {
                    "indexed": true,
                    "internalType": "address",
                    "name": "owner",
                    "type": "address"
                },
                {
                    "indexed": true,
                    "internalType": "address",
                    "name": "approved",
                    "type": "address"
                },
                {
                    "indexed": true,
                    "internalType": "uint256",
                    "name": "tokenId",
                    "type": "uint256"
                }
            ],
            "name": "Approval",
            "type": "event"
        },
        {
            "anonymous": false,
            "inputs": [
                {
                    "indexed": true,
                    "internalType": "address",
                    "name": "owner",
                    "type": "address"
                },
                {
                    "indexed": true,
                    "internalType": "address",
                    "name": "operator",
                    "type": "address"
                },
                {
                    "indexed": false,
                    "internalType": "bool",
                    "name": "approved",
                    "type": "bool"
                }
            ],
            "name": "ApprovalForAll",
            "type": "event"
        },
        {
            "anonymous": false,
            "inputs": [
                {
                    "indexed": false,
                    "internalType": "address",
                    "name": "sender",
                    "type": "address"
                },
                {
                    "indexed": false,
                    "internalType": "uint256",
                    "name": "tokenId",
                    "type": "uint256"
                }
            ],
            "name": "NFTMinted",
            "type": "event"
        },
        {
            "anonymous": false,
            "inputs": [
                {
                    "indexed": true,
                    "internalType": "address",
                    "name": "from",
                    "type": "address"
                },
                {
                    "indexed": true,
                    "internalType": "address",
                    "name": "to",
                    "type": "address"
                },
                {
                    "indexed": true,
                    "internalType": "uint256",
                    "name": "tokenId",
                    "type": "uint256"
                }
            ],
            "name": "Transfer",
            "type": "event"
        },
        {
            "inputs": [
                {
                    "internalType": "address",
                    "name": "to",
                    "type": "address"
                },
                {
                    "internalType": "uint256",
                    "name": "tokenId",
                    "type": "uint256"
                }
            ],
            "name": "approve",
            "outputs": [],
            "stateMutability": "nonpayable",
            "type": "function"
        },
        {
            "inputs": [
                {
                    "internalType": "address",
                    "name": "owner",
                    "type": "address"
                }
            ],
            "name": "balanceOf",
            "outputs": [
                {
                    "internalType": "uint256",
                    "name": "",
                    "type": "uint256"
                }
            ],
            "stateMutability": "view",
            "type": "function"
        },
        {
            "inputs": [
                {
                    "internalType": "uint256",
                    "name": "tokenId",
                    "type": "uint256"
                }
            ],
            "name": "getApproved",
            "outputs": [
                {
                    "internalType": "address",
                    "name": "",
                    "type": "address"
                }
            ],
            "stateMutability": "view",
            "type": "function"
        },
        {
            "inputs": [
                {
                    "internalType": "address",
                    "name": "owner",
                    "type": "address"
                },
                {
                    "internalType": "address",
                    "name": "operator",
                    "type": "address"
                }
            ],
            "name": "isApprovedForAll",
            "outputs": [
                {
                    "internalType": "bool",
                    "name": "",
                    "type": "bool"
                }
            ],
            "stateMutability": "view",
            "type": "function"
        },
        {
            "inputs": [],
            "name": "makeNFT",
            "outputs": [],
            "stateMutability": "nonpayable",
            "type": "function"
        },
        {
            "inputs": [],
            "name": "name",
            "outputs": [
                {
                    "internalType": "string",
                    "name": "",
                    "type": "string"
                }
            ],
            "stateMutability": "view",
            "type": "function"
        },
        {
            "inputs": [
                {
                    "internalType": "uint256",
                    "name": "tokenId",
                    "type": "uint256"
                }
            ],
            "name": "ownerOf",
            "outputs": [
                {
                    "internalType": "address",
                    "name": "",
                    "type": "address"
                }
            ],
            "stateMutability": "view",
            "type": "function"
        },
        {
            "inputs": [
                {
                    "internalType": "uint256",
                    "name": "tokenId",
                    "type": "uint256"
                }
            ],
            "name": "randFirstWord",
            "outputs": [
                {
                    "internalType": "string",
                    "name": "",
                    "type": "string"
                }
            ],
            "stateMutability": "view",
            "type": "function"
        },
        {
            "inputs": [
                {
                    "internalType": "uint256",
                    "name": "tokenId",
                    "type": "uint256"
                }
            ],
            "name": "randSecondWord",
            "outputs": [
                {
                    "internalType": "string",
                    "name": "",
                    "type": "string"
                }
            ],
            "stateMutability": "view",
            "type": "function"
        },
        {
            "inputs": [
                {
                    "internalType": "uint256",
                    "name": "tokenId",
                    "type": "uint256"
                }
            ],
            "name": "randThirdWord",
            "outputs": [
                {
                    "internalType": "string",
                    "name": "",
                    "type": "string"
                }
            ],
            "stateMutability": "view",
            "type": "function"
        },
        {
            "inputs": [
                {
                    "internalType": "address",
                    "name": "from",
                    "type": "address"
                },
                {
                    "internalType": "address",
                    "name": "to",
                    "type": "address"
                },
                {
                    "internalType": "uint256",
                    "name": "tokenId",
                    "type": "uint256"
                }
            ],
            "name": "safeTransferFrom",
            "outputs": [],
            "stateMutability": "nonpayable",
            "type": "function"
        },
        {
            "inputs": [
                {
                    "internalType": "address",
                    "name": "from",
                    "type": "address"
                },
                {
                    "internalType": "address",
                    "name": "to",
                    "type": "address"
                },
                {
                    "internalType": "uint256",
                    "name": "tokenId",
                    "type": "uint256"
                },
                {
                    "internalType": "bytes",
                    "name": "_data",
                    "type": "bytes"
                }
            ],
            "name": "safeTransferFrom",
            "outputs": [],
            "stateMutability": "nonpayable",
            "type": "function"
        },
        {
            "inputs": [
                {
                    "internalType": "address",
                    "name": "operator",
                    "type": "address"
                },
                {
                    "internalType": "bool",
                    "name": "approved",
                    "type": "bool"
                }
            ],
            "name": "setApprovalForAll",
            "outputs": [],
            "stateMutability": "nonpayable",
            "type": "function"
        },
        {
            "inputs": [
                {
                    "internalType": "bytes4",
                    "name": "interfaceId",
                    "type": "bytes4"
                }
            ],
            "name": "supportsInterface",
            "outputs": [
                {
                    "internalType": "bool",
                    "name": "",
                    "type": "bool"
                }
            ],
            "stateMutability": "view",
            "type": "function"
        },
        {
            "inputs": [],
            "name": "symbol",
            "outputs": [
                {
                    "internalType": "string",
                    "name": "",
                    "type": "string"
                }
            ],
            "stateMutability": "view",
            "type": "function"
        },
        {
            "inputs": [
                {
                    "internalType": "uint256",
                    "name": "tokenId",
                    "type": "uint256"
                }
            ],
            "name": "tokenURI",
            "outputs": [
                {
                    "internalType": "string",
                    "name": "",
                    "type": "string"
                }
            ],
            "stateMutability": "view",
            "type": "function"
        },
        {
            "inputs": [
                {
                    "internalType": "address",
                    "name": "from",
                    "type": "address"
                },
                {
                    "internalType": "address",
                    "name": "to",
                    "type": "address"
                },
                {
                    "internalType": "uint256",
                    "name": "tokenId",
                    "type": "uint256"
                }
            ],
            "name": "transferFrom",
            "outputs": [],
            "stateMutability": "nonpayable",
            "type": "function"
        }
    ],
    "bytecode": "0x60806040526040518060a001604052806040518060400160405280600481526020017f46616b650000000000000000000000000000000000000000000000000000000081525081526020016040518060400160405280600481526020017f547275650000000000000000000000000000000000000000000000000000000081525081526020016040518060400160405280600981526020017f457373656e7469616c000000000000000000000000000000000000000000000081525081526020016040518060400160405280600c81526020017f556e6e657363657373617279000000000000000000000000000000000000000081525081526020016040518060400160405280600b81526020017f556e7265616c69737469630000000000000000000000000000000000000000008152508152506008906005620001469291906200067f565b506040518060a001604052806040518060400160405280600481526020017f426f676f0000000000000000000000000000000000000000000000000000000081525081526020016040518060400160405280600681526020017f446f6f646f6f000000000000000000000000000000000000000000000000000081525081526020016040518060400160405280600681526020017f536d656c6c79000000000000000000000000000000000000000000000000000081525081526020016040518060400160405280600681526020017f5368696e6e79000000000000000000000000000000000000000000000000000081525081526020016040518060400160405280600681526020017f47726565647900000000000000000000000000000000000000000000000000008152508152506009906005620002899291906200067f565b506040518061010001604052806040518060400160405280600481526020017f436173680000000000000000000000000000000000000000000000000000000081525081526020016040518060400160405280600781526020017f467269656e64730000000000000000000000000000000000000000000000000081525081526020016040518060400160405280600981526020017f48617070696e657373000000000000000000000000000000000000000000000081525081526020016040518060400160405280600481526020017f486f70650000000000000000000000000000000000000000000000000000000081525081526020016040518060400160405280600681526020017f436f66666565000000000000000000000000000000000000000000000000000081525081526020016040518060400160405280600381526020017f546561000000000000000000000000000000000000000000000000000000000081525081526020016040518060400160405280600681526020017f54696e646572000000000000000000000000000000000000000000000000000081525081526020016040518060400160405280600581526020017f436f756368000000000000000000000000000000000000000000000000000000815250815250600a9060086200047e929190620006e6565b5060405180610160016040528061012f81526020016200416261012f9139600b9080519060200190620004b39291906200074d565b50348015620004c157600080fd5b506040518060400160405280600a81526020017f537175617265204e4654000000000000000000000000000000000000000000008152506040518060400160405280600681526020017f53515541524500000000000000000000000000000000000000000000000000008152508160009080519060200190620005469291906200074d565b5080600190805190602001906200055f9291906200074d565b505050620005ad6040518060400160405280601881526020017f6e667420636f6e747261637420696e697469616c697a65640000000000000000815250620005b360201b620010361760201c565b62000998565b6200065381604051602401620005ca9190620008ac565b6040516020818303038152906040527f41304fac000000000000000000000000000000000000000000000000000000007bffffffffffffffffffffffffffffffffffffffffffffffffffffffff19166020820180517bffffffffffffffffffffffffffffffffffffffffffffffffffffffff83818316178352505050506200065660201b60201c565b50565b60008151905060006a636f6e736f6c652e6c6f679050602083016000808483855afa5050505050565b828054828255906000526020600020908101928215620006d3579160200282015b82811115620006d2578251829080519060200190620006c19291906200074d565b5091602001919060010190620006a0565b5b509050620006e29190620007de565b5090565b8280548282559060005260206000209081019282156200073a579160200282015b8281111562000739578251829080519060200190620007289291906200074d565b509160200191906001019062000707565b5b509050620007499190620007de565b5090565b8280546200075b9062000922565b90600052602060002090601f0160209004810192826200077f5760008555620007cb565b82601f106200079a57805160ff1916838001178555620007cb565b82800160010185558215620007cb579182015b82811115620007ca578251825591602001919060010190620007ad565b5b509050620007da919062000806565b5090565b5b80821115620008025760008181620007f8919062000825565b50600101620007df565b5090565b5b808211156200082157600081600090555060010162000807565b5090565b508054620008339062000922565b6000825580601f1062000847575062000868565b601f01602090049060005260206000209081019062000867919062000806565b5b50565b60006200087882620008d0565b620008848185620008db565b935062000896818560208601620008ec565b620008a18162000987565b840191505092915050565b60006020820190508181036000830152620008c881846200086b565b905092915050565b600081519050919050565b600082825260208201905092915050565b60005b838110156200090c578082015181840152602081019050620008ef565b838111156200091c576000848401525b50505050565b600060028204905060018216806200093b57607f821691505b6020821081141562000952576200095162000958565b5b50919050565b7f4e487b7100000000000000000000000000000000000000000000000000000000600052602260045260246000fd5b6000601f19601f8301169050919050565b6137ba80620009a86000396000f3fe608060405234801561001057600080fd5b506004361061010b5760003560e01c806366db8ce5116100a2578063b036b4bd11610071578063b036b4bd146102dc578063b88d4fde146102e6578063c87b56dd14610302578063e985e9c514610332578063f6ea9321146103625761010b565b806366db8ce51461024257806370a082311461027257806395d89b41146102a2578063a22cb465146102c05761010b565b8063142fe1f9116100de578063142fe1f9146101aa57806323b872dd146101da57806342842e0e146101f65780636352211e146102125761010b565b806301ffc9a71461011057806306fdde0314610140578063081812fc1461015e578063095ea7b31461018e575b600080fd5b61012a60048036038101906101259190612417565b610392565b6040516101379190613026565b60405180910390f35b610148610474565b6040516101559190613041565b60405180910390f35b61017860048036038101906101739190612469565b610506565b6040516101859190612f96565b60405180910390f35b6101a860048036038101906101a391906123db565b61058b565b005b6101c460048036038101906101bf9190612469565b6106a3565b6040516101d19190613041565b60405180910390f35b6101f460048036038101906101ef91906122d5565b6107b9565b005b610210600480360381019061020b91906122d5565b610819565b005b61022c60048036038101906102279190612469565b610839565b6040516102399190612f96565b60405180910390f35b61025c60048036038101906102579190612469565b6108eb565b6040516102699190613041565b60405180910390f35b61028c60048036038101906102879190612270565b610a01565b60405161029991906132a1565b60405180910390f35b6102aa610ab9565b6040516102b79190613041565b60405180910390f35b6102da60048036038101906102d5919061239f565b610b4b565b005b6102e4610b61565b005b61030060048036038101906102fb9190612324565b610cd0565b005b61031c60048036038101906103179190612469565b610d32565b6040516103299190613041565b60405180910390f35b61034c60048036038101906103479190612299565b610e84565b6040516103599190613026565b60405180910390f35b61037c60048036038101906103779190612469565b610f18565b6040516103899190613041565b60405180910390f35b60007f80ac58cd000000000000000000000000000000000000000000000000000000007bffffffffffffffffffffffffffffffffffffffffffffffffffffffff1916827bffffffffffffffffffffffffffffffffffffffffffffffffffffffff1916148061045d57507f5b5e139f000000000000000000000000000000000000000000000000000000007bffffffffffffffffffffffffffffffffffffffffffffffffffffffff1916827bffffffffffffffffffffffffffffffffffffffffffffffffffffffff1916145b8061046d575061046c826110cf565b5b9050919050565b60606000805461048390613540565b80601f01602080910402602001604051908101604052809291908181526020018280546104af90613540565b80156104fc5780601f106104d1576101008083540402835291602001916104fc565b820191906000526020600020905b8154815290600101906020018083116104df57829003601f168201915b5050505050905090565b600061051182611139565b610550576040517f08c379a000000000000000000000000000000000000000000000000000000000815260040161054790613201565b60405180910390fd5b6004600083815260200190815260200160002060009054906101000a900473ffffffffffffffffffffffffffffffffffffffff169050919050565b600061059682610839565b90508073ffffffffffffffffffffffffffffffffffffffff168373ffffffffffffffffffffffffffffffffffffffff161415610607576040517f08c379a00000000000000000000000000000000000000000000000000000000081526004016105fe90613261565b60405180910390fd5b8073ffffffffffffffffffffffffffffffffffffffff166106266111a5565b73ffffffffffffffffffffffffffffffffffffffff16148061065557506106548161064f6111a5565b610e84565b5b610694576040517f08c379a000000000000000000000000000000000000000000000000000000000815260040161068b90613141565b60405180910390fd5b61069e83836111ad565b505050565b606060006106cf836040516020016106bb9190612ec1565b604051602081830303815290604052611266565b9050600a80549050816106e291906135c5565b9050600a818154811061071e577f4e487b7100000000000000000000000000000000000000000000000000000000600052603260045260246000fd5b90600052602060002001805461073390613540565b80601f016020809104026020016040519081016040528092919081815260200182805461075f90613540565b80156107ac5780601f10610781576101008083540402835291602001916107ac565b820191906000526020600020905b81548152906001019060200180831161078f57829003601f168201915b5050505050915050919050565b6107ca6107c46111a5565b82611299565b610809576040517f08c379a000000000000000000000000000000000000000000000000000000000815260040161080090613281565b60405180910390fd5b610814838383611377565b505050565b61083483838360405180602001604052806000815250610cd0565b505050565b6000806002600084815260200190815260200160002060009054906101000a900473ffffffffffffffffffffffffffffffffffffffff169050600073ffffffffffffffffffffffffffffffffffffffff168173ffffffffffffffffffffffffffffffffffffffff1614156108e2576040517f08c379a00000000000000000000000000000000000000000000000000000000081526004016108d990613181565b60405180910390fd5b80915050919050565b60606000610917836040516020016109039190612f4e565b604051602081830303815290604052611266565b90506009805490508161092a91906135c5565b905060098181548110610966577f4e487b7100000000000000000000000000000000000000000000000000000000600052603260045260246000fd5b90600052602060002001805461097b90613540565b80601f01602080910402602001604051908101604052809291908181526020018280546109a790613540565b80156109f45780601f106109c9576101008083540402835291602001916109f4565b820191906000526020600020905b8154815290600101906020018083116109d757829003601f168201915b5050505050915050919050565b60008073ffffffffffffffffffffffffffffffffffffffff168273ffffffffffffffffffffffffffffffffffffffff161415610a72576040517f08c379a0000000000000000000000000000000000000000000000000000000008152600401610a6990613161565b60405180910390fd5b600360008373ffffffffffffffffffffffffffffffffffffffff1673ffffffffffffffffffffffffffffffffffffffff168152602001908152602001600020549050919050565b606060018054610ac890613540565b80601f0160208091040260200160405190810160405280929190818152602001828054610af490613540565b8015610b415780601f10610b1657610100808354040283529160200191610b41565b820191906000526020600020905b815481529060010190602001808311610b2457829003601f168201915b5050505050905090565b610b5d610b566111a5565b83836115d3565b5050565b6000610b6d6007611740565b90506000610b7a82610f18565b90506000610b87836108eb565b90506000610b94846106a3565b90506000838383604051602001610bad93929190612e47565b60405160208183030381529060405290506000600b858585604051602001610bd89493929190612e78565b60405160208183030381529060405290506000610c1d83610bf88461174e565b604051602001610c09929190612ee7565b60405160208183030381529060405261174e565b9050600081604051602001610c329190612f2c565b6040516020818303038152906040529050610c4c81611036565b610c5633896118ed565b610c60888261190b565b610c8360405180606001604052806025815260200161372060259139893361197f565b610c8d6007611a1e565b7f4cc0a9c4a99ddc700de1af2c9f916a7cbfdb71f14801ccff94061ad1ef8a80403389604051610cbe929190612ffd565b60405180910390a15050505050505050565b610ce1610cdb6111a5565b83611299565b610d20576040517f08c379a0000000000000000000000000000000000000000000000000000000008152600401610d1790613281565b60405180910390fd5b610d2c84848484611a34565b50505050565b6060610d3d82611139565b610d7c576040517f08c379a0000000000000000000000000000000000000000000000000000000008152600401610d73906131e1565b60405180910390fd5b6000600660008481526020019081526020016000208054610d9c90613540565b80601f0160208091040260200160405190810160405280929190818152602001828054610dc890613540565b8015610e155780601f10610dea57610100808354040283529160200191610e15565b820191906000526020600020905b815481529060010190602001808311610df857829003601f168201915b505050505090506000610e26611a90565b9050600081511415610e3c578192505050610e7f565b600082511115610e71578082604051602001610e59929190612e23565b60405160208183030381529060405292505050610e7f565b610e7a84611aa7565b925050505b919050565b6000600560008473ffffffffffffffffffffffffffffffffffffffff1673ffffffffffffffffffffffffffffffffffffffff16815260200190815260200160002060008373ffffffffffffffffffffffffffffffffffffffff1673ffffffffffffffffffffffffffffffffffffffff16815260200190815260200160002060009054906101000a900460ff16905092915050565b60606000610f4c610f2884611b4e565b604051602001610f389190612f74565b604051602081830303815290604052611266565b905060088054905081610f5f91906135c5565b905060088181548110610f9b577f4e487b7100000000000000000000000000000000000000000000000000000000600052603260045260246000fd5b906000526020600020018054610fb090613540565b80601f0160208091040260200160405190810160405280929190818152602001828054610fdc90613540565b80156110295780601f10610ffe57610100808354040283529160200191611029565b820191906000526020600020905b81548152906001019060200180831161100c57829003601f168201915b5050505050915050919050565b6110cc8160405160240161104a9190613041565b6040516020818303038152906040527f41304fac000000000000000000000000000000000000000000000000000000007bffffffffffffffffffffffffffffffffffffffffffffffffffffffff19166020820180517bffffffffffffffffffffffffffffffffffffffffffffffffffffffff8381831617835250505050611cfb565b50565b60007f01ffc9a7000000000000000000000000000000000000000000000000000000007bffffffffffffffffffffffffffffffffffffffffffffffffffffffff1916827bffffffffffffffffffffffffffffffffffffffffffffffffffffffff1916149050919050565b60008073ffffffffffffffffffffffffffffffffffffffff166002600084815260200190815260200160002060009054906101000a900473ffffffffffffffffffffffffffffffffffffffff1673ffffffffffffffffffffffffffffffffffffffff1614159050919050565b600033905090565b816004600083815260200190815260200160002060006101000a81548173ffffffffffffffffffffffffffffffffffffffff021916908373ffffffffffffffffffffffffffffffffffffffff160217905550808273ffffffffffffffffffffffffffffffffffffffff1661122083610839565b73ffffffffffffffffffffffffffffffffffffffff167f8c5be1e5ebec7d5bd14f71427d1e84f3dd0314c0f7b2291e5b200ac8c7c3b92560405160405180910390a45050565b6000816040516020016112799190612e0c565b6040516020818303038152906040528051906020012060001c9050919050565b60006112a482611139565b6112e3576040517f08c379a00000000000000000000000000000000000000000000000000000000081526004016112da90613121565b60405180910390fd5b60006112ee83610839565b90508073ffffffffffffffffffffffffffffffffffffffff168473ffffffffffffffffffffffffffffffffffffffff16148061135d57508373ffffffffffffffffffffffffffffffffffffffff1661134584610506565b73ffffffffffffffffffffffffffffffffffffffff16145b8061136e575061136d8185610e84565b5b91505092915050565b8273ffffffffffffffffffffffffffffffffffffffff1661139782610839565b73ffffffffffffffffffffffffffffffffffffffff16146113ed576040517f08c379a00000000000000000000000000000000000000000000000000000000081526004016113e490613221565b60405180910390fd5b600073ffffffffffffffffffffffffffffffffffffffff168273ffffffffffffffffffffffffffffffffffffffff16141561145d576040517f08c379a0000000000000000000000000000000000000000000000000000000008152600401611454906130e1565b60405180910390fd5b611468838383611d24565b6114736000826111ad565b6001600360008573ffffffffffffffffffffffffffffffffffffffff1673ffffffffffffffffffffffffffffffffffffffff16815260200190815260200160002060008282546114c39190613456565b925050819055506001600360008473ffffffffffffffffffffffffffffffffffffffff1673ffffffffffffffffffffffffffffffffffffffff168152602001908152602001600020600082825461151a9190613375565b92505081905550816002600083815260200190815260200160002060006101000a81548173ffffffffffffffffffffffffffffffffffffffff021916908373ffffffffffffffffffffffffffffffffffffffff160217905550808273ffffffffffffffffffffffffffffffffffffffff168473ffffffffffffffffffffffffffffffffffffffff167fddf252ad1be2c89b69c2b068fc378daa952ba7f163c4a11628f55a4df523b3ef60405160405180910390a4505050565b8173ffffffffffffffffffffffffffffffffffffffff168373ffffffffffffffffffffffffffffffffffffffff161415611642576040517f08c379a000000000000000000000000000000000000000000000000000000000815260040161163990613101565b60405180910390fd5b80600560008573ffffffffffffffffffffffffffffffffffffffff1673ffffffffffffffffffffffffffffffffffffffff16815260200190815260200160002060008473ffffffffffffffffffffffffffffffffffffffff1673ffffffffffffffffffffffffffffffffffffffff16815260200190815260200160002060006101000a81548160ff0219169083151502179055508173ffffffffffffffffffffffffffffffffffffffff168373ffffffffffffffffffffffffffffffffffffffff167f17307eab39ab6107e8899845ad3d59bd9653f200f220920489ca2b5937696c31836040516117339190613026565b60405180910390a3505050565b600081600001549050919050565b6060600082511415611771576040518060200160405280600081525090506118e8565b600060405180606001604052806040815260200161374560409139905060006003600285516117a09190613375565b6117aa91906133cb565b60046117b691906133fc565b905060006020826117c79190613375565b67ffffffffffffffff811115611806577f4e487b7100000000000000000000000000000000000000000000000000000000600052604160045260246000fd5b6040519080825280601f01601f1916602001820160405280156118385781602001600182028036833780820191505090505b509050818152600183018586518101602084015b818310156118a7576003830192508251603f8160121c168501518253600182019150603f81600c1c168501518253600182019150603f8160061c168501518253600182019150603f811685015182536001820191505061184c565b6003895106600181146118c157600281146118d1576118dc565b613d3d60f01b60028303526118dc565b603d60f81b60018303525b50505050508093505050505b919050565b611907828260405180602001604052806000815250611d29565b5050565b61191482611139565b611953576040517f08c379a000000000000000000000000000000000000000000000000000000000815260040161194a906131a1565b60405180910390fd5b8060066000848152602001908152602001600020908051906020019061197a9291906120fc565b505050565b611a1983838360405160240161199793929190613063565b6040516020818303038152906040527fe3849f79000000000000000000000000000000000000000000000000000000007bffffffffffffffffffffffffffffffffffffffffffffffffffffffff19166020820180517bffffffffffffffffffffffffffffffffffffffffffffffffffffffff8381831617835250505050611cfb565b505050565b6001816000016000828254019250508190555050565b611a3f848484611377565b611a4b84848484611d84565b611a8a576040517f08c379a0000000000000000000000000000000000000000000000000000000008152600401611a81906130a1565b60405180910390fd5b50505050565b606060405180602001604052806000815250905090565b6060611ab282611139565b611af1576040517f08c379a0000000000000000000000000000000000000000000000000000000008152600401611ae890613241565b60405180910390fd5b6000611afb611a90565b90506000815111611b1b5760405180602001604052806000815250611b46565b80611b2584611b4e565b604051602001611b36929190612e23565b6040516020818303038152906040525b915050919050565b60606000821415611b96576040518060400160405280600181526020017f30000000000000000000000000000000000000000000000000000000000000008152509050611cf6565b600082905060005b60008214611bc8578080611bb190613572565b915050600a82611bc191906133cb565b9150611b9e565b60008167ffffffffffffffff811115611c0a577f4e487b7100000000000000000000000000000000000000000000000000000000600052604160045260246000fd5b6040519080825280601f01601f191660200182016040528015611c3c5781602001600182028036833780820191505090505b5090505b60008514611cef57600182611c559190613456565b9150600a85611c6491906135c5565b6030611c709190613375565b60f81b818381518110611cac577f4e487b7100000000000000000000000000000000000000000000000000000000600052603260045260246000fd5b60200101907effffffffffffffffffffffffffffffffffffffffffffffffffffffffffffff1916908160001a905350600a85611ce891906133cb565b9450611c40565b8093505050505b919050565b60008151905060006a636f6e736f6c652e6c6f679050602083016000808483855afa5050505050565b505050565b611d338383611f1b565b611d406000848484611d84565b611d7f576040517f08c379a0000000000000000000000000000000000000000000000000000000008152600401611d76906130a1565b60405180910390fd5b505050565b6000611da58473ffffffffffffffffffffffffffffffffffffffff166120e9565b15611f0e578373ffffffffffffffffffffffffffffffffffffffff1663150b7a02611dce6111a5565b8786866040518563ffffffff1660e01b8152600401611df09493929190612fb1565b602060405180830381600087803b158015611e0a57600080fd5b505af1925050508015611e3b57506040513d601f19601f82011682018060405250810190611e389190612440565b60015b611ebe573d8060008114611e6b576040519150601f19603f3d011682016040523d82523d6000602084013e611e70565b606091505b50600081511415611eb6576040517f08c379a0000000000000000000000000000000000000000000000000000000008152600401611ead906130a1565b60405180910390fd5b805181602001fd5b63150b7a0260e01b7bffffffffffffffffffffffffffffffffffffffffffffffffffffffff1916817bffffffffffffffffffffffffffffffffffffffffffffffffffffffff191614915050611f13565b600190505b949350505050565b600073ffffffffffffffffffffffffffffffffffffffff168273ffffffffffffffffffffffffffffffffffffffff161415611f8b576040517f08c379a0000000000000000000000000000000000000000000000000000000008152600401611f82906131c1565b60405180910390fd5b611f9481611139565b15611fd4576040517f08c379a0000000000000000000000000000000000000000000000000000000008152600401611fcb906130c1565b60405180910390fd5b611fe060008383611d24565b6001600360008473ffffffffffffffffffffffffffffffffffffffff1673ffffffffffffffffffffffffffffffffffffffff16815260200190815260200160002060008282546120309190613375565b92505081905550816002600083815260200190815260200160002060006101000a81548173ffffffffffffffffffffffffffffffffffffffff021916908373ffffffffffffffffffffffffffffffffffffffff160217905550808273ffffffffffffffffffffffffffffffffffffffff16600073ffffffffffffffffffffffffffffffffffffffff167fddf252ad1be2c89b69c2b068fc378daa952ba7f163c4a11628f55a4df523b3ef60405160405180910390a45050565b600080823b905060008111915050919050565b82805461210890613540565b90600052602060002090601f01602090048101928261212a5760008555612171565b82601f1061214357805160ff1916838001178555612171565b82800160010185558215612171579182015b82811115612170578251825591602001919060010190612155565b5b50905061217e9190612182565b5090565b5b8082111561219b576000816000905550600101612183565b5090565b60006121b26121ad846132ed565b6132bc565b9050828152602081018484840111156121ca57600080fd5b6121d58482856134fe565b509392505050565b6000813590506121ec816136c3565b92915050565b600081359050612201816136da565b92915050565b600081359050612216816136f1565b92915050565b60008151905061222b816136f1565b92915050565b600082601f83011261224257600080fd5b813561225284826020860161219f565b91505092915050565b60008135905061226a81613708565b92915050565b60006020828403121561228257600080fd5b6000612290848285016121dd565b91505092915050565b600080604083850312156122ac57600080fd5b60006122ba858286016121dd565b92505060206122cb858286016121dd565b9150509250929050565b6000806000606084860312156122ea57600080fd5b60006122f8868287016121dd565b9350506020612309868287016121dd565b925050604061231a8682870161225b565b9150509250925092565b6000806000806080858703121561233a57600080fd5b6000612348878288016121dd565b9450506020612359878288016121dd565b935050604061236a8782880161225b565b925050606085013567ffffffffffffffff81111561238757600080fd5b61239387828801612231565b91505092959194509250565b600080604083850312156123b257600080fd5b60006123c0858286016121dd565b92505060206123d1858286016121f2565b9150509250929050565b600080604083850312156123ee57600080fd5b60006123fc858286016121dd565b925050602061240d8582860161225b565b9150509250929050565b60006020828403121561242957600080fd5b600061243784828501612207565b91505092915050565b60006020828403121561245257600080fd5b60006124608482850161221c565b91505092915050565b60006020828403121561247b57600080fd5b60006124898482850161225b565b91505092915050565b61249b8161348a565b82525050565b6124aa8161349c565b82525050565b60006124bb82613332565b6124c58185613348565b93506124d581856020860161350d565b6124de816136b2565b840191505092915050565b60006124f48261333d565b6124fe8185613359565b935061250e81856020860161350d565b612517816136b2565b840191505092915050565b600061252d8261333d565b612537818561336a565b935061254781856020860161350d565b80840191505092915050565b6000815461256081613540565b61256a818661336a565b945060018216600081146125855760018114612596576125c9565b60ff198316865281860193506125c9565b61259f8561331d565b60005b838110156125c1578154818901526001820191506020810190506125a2565b838801955050505b50505092915050565b60006125df603283613359565b91507f4552433732313a207472616e7366657220746f206e6f6e20455243373231526560008301527f63656976657220696d706c656d656e74657200000000000000000000000000006020830152604082019050919050565b6000612645601c83613359565b91507f4552433732313a20746f6b656e20616c7265616479206d696e746564000000006000830152602082019050919050565b6000612685602483613359565b91507f4552433732313a207472616e7366657220746f20746865207a65726f2061646460008301527f72657373000000000000000000000000000000000000000000000000000000006020830152604082019050919050565b60006126eb601983613359565b91507f4552433732313a20617070726f766520746f2063616c6c6572000000000000006000830152602082019050919050565b600061272b602c83613359565b91507f4552433732313a206f70657261746f7220717565727920666f72206e6f6e657860008301527f697374656e7420746f6b656e00000000000000000000000000000000000000006020830152604082019050919050565b6000612791600d8361336a565b91507f3c2f746578743e3c2f7376673e000000000000000000000000000000000000006000830152600d82019050919050565b60006127d1603883613359565b91507f4552433732313a20617070726f76652063616c6c6572206973206e6f74206f7760008301527f6e6572206e6f7220617070726f76656420666f7220616c6c00000000000000006020830152604082019050919050565b6000612837602a83613359565b91507f4552433732313a2062616c616e636520717565727920666f7220746865207a6560008301527f726f2061646472657373000000000000000000000000000000000000000000006020830152604082019050919050565b600061289d602983613359565b91507f4552433732313a206f776e657220717565727920666f72206e6f6e657869737460008301527f656e7420746f6b656e00000000000000000000000000000000000000000000006020830152604082019050919050565b6000612903602e83613359565b91507f45524337323155524953746f726167653a2055524920736574206f66206e6f6e60008301527f6578697374656e7420746f6b656e0000000000000000000000000000000000006020830152604082019050919050565b600061296960028361336a565b91507f227d0000000000000000000000000000000000000000000000000000000000006000830152600282019050919050565b60006129a9602083613359565b91507f4552433732313a206d696e7420746f20746865207a65726f20616464726573736000830152602082019050919050565b60006129e9603183613359565b91507f45524337323155524953746f726167653a2055524920717565727920666f722060008301527f6e6f6e6578697374656e7420746f6b656e0000000000000000000000000000006020830152604082019050919050565b6000612a4f602c83613359565b91507f4552433732313a20617070726f76656420717565727920666f72206e6f6e657860008301527f697374656e7420746f6b656e00000000000000000000000000000000000000006020830152604082019050919050565b6000612ab560098361336a565b91507f7468697264576f726400000000000000000000000000000000000000000000006000830152600982019050919050565b6000612af5602983613359565b91507f4552433732313a207472616e73666572206f6620746f6b656e2074686174206960008301527f73206e6f74206f776e00000000000000000000000000000000000000000000006020830152604082019050919050565b6000612b5b602f83613359565b91507f4552433732314d657461646174613a2055524920717565727920666f72206e6f60008301527f6e6578697374656e7420746f6b656e00000000000000000000000000000000006020830152604082019050919050565b6000612bc1600a8361336a565b91507f7b226e616d65223a2022000000000000000000000000000000000000000000006000830152600a82019050919050565b6000612c01602183613359565b91507f4552433732313a20617070726f76616c20746f2063757272656e74206f776e6560008301527f72000000000000000000000000000000000000000000000000000000000000006020830152604082019050919050565b6000612c67601d8361336a565b91507f646174613a6170706c69636174696f6e2f6a736f6e3b6261736536342c0000006000830152601d82019050919050565b6000612ca7603f8361336a565b91507f222c226465736372697074696f6e223a202273517541724573222c2022696d6160008301527f6765223a22646174613a696d6167652f7376672b786d6c3b6261736536342c006020830152603f82019050919050565b6000612d0d603183613359565b91507f4552433732313a207472616e736665722063616c6c6572206973206e6f74206f60008301527f776e6572206e6f7220617070726f7665640000000000000000000000000000006020830152604082019050919050565b6000612d73600a8361336a565b91507f7365636f6e64576f7264000000000000000000000000000000000000000000006000830152600a82019050919050565b6000612db360098361336a565b91507f6669727374576f726400000000000000000000000000000000000000000000006000830152600982019050919050565b612def816134f4565b82525050565b612e06612e01826134f4565b6135bb565b82525050565b6000612e188284612522565b915081905092915050565b6000612e2f8285612522565b9150612e3b8284612522565b91508190509392505050565b6000612e538286612522565b9150612e5f8285612522565b9150612e6b8284612522565b9150819050949350505050565b6000612e848287612553565b9150612e908286612522565b9150612e9c8285612522565b9150612ea88284612522565b9150612eb382612784565b915081905095945050505050565b6000612ecc82612aa8565b9150612ed88284612df5565b60208201915081905092915050565b6000612ef282612bb4565b9150612efe8285612522565b9150612f0982612c9a565b9150612f158284612522565b9150612f208261295c565b91508190509392505050565b6000612f3782612c5a565b9150612f438284612522565b915081905092915050565b6000612f5982612d66565b9150612f658284612df5565b60208201915081905092915050565b6000612f7f82612da6565b9150612f8b8284612522565b915081905092915050565b6000602082019050612fab6000830184612492565b92915050565b6000608082019050612fc66000830187612492565b612fd36020830186612492565b612fe06040830185612de6565b8181036060830152612ff281846124b0565b905095945050505050565b60006040820190506130126000830185612492565b61301f6020830184612de6565b9392505050565b600060208201905061303b60008301846124a1565b92915050565b6000602082019050818103600083015261305b81846124e9565b905092915050565b6000606082019050818103600083015261307d81866124e9565b905061308c6020830185612de6565b6130996040830184612492565b949350505050565b600060208201905081810360008301526130ba816125d2565b9050919050565b600060208201905081810360008301526130da81612638565b9050919050565b600060208201905081810360008301526130fa81612678565b9050919050565b6000602082019050818103600083015261311a816126de565b9050919050565b6000602082019050818103600083015261313a8161271e565b9050919050565b6000602082019050818103600083015261315a816127c4565b9050919050565b6000602082019050818103600083015261317a8161282a565b9050919050565b6000602082019050818103600083015261319a81612890565b9050919050565b600060208201905081810360008301526131ba816128f6565b9050919050565b600060208201905081810360008301526131da8161299c565b9050919050565b600060208201905081810360008301526131fa816129dc565b9050919050565b6000602082019050818103600083015261321a81612a42565b9050919050565b6000602082019050818103600083015261323a81612ae8565b9050919050565b6000602082019050818103600083015261325a81612b4e565b9050919050565b6000602082019050818103600083015261327a81612bf4565b9050919050565b6000602082019050818103600083015261329a81612d00565b9050919050565b60006020820190506132b66000830184612de6565b92915050565b6000604051905081810181811067ffffffffffffffff821117156132e3576132e2613683565b5b8060405250919050565b600067ffffffffffffffff82111561330857613307613683565b5b601f19601f8301169050602081019050919050565b60008190508160005260206000209050919050565b600081519050919050565b600081519050919050565b600082825260208201905092915050565b600082825260208201905092915050565b600081905092915050565b6000613380826134f4565b915061338b836134f4565b9250827fffffffffffffffffffffffffffffffffffffffffffffffffffffffffffffffff038211156133c0576133bf6135f6565b5b828201905092915050565b60006133d6826134f4565b91506133e1836134f4565b9250826133f1576133f0613625565b5b828204905092915050565b6000613407826134f4565b9150613412836134f4565b9250817fffffffffffffffffffffffffffffffffffffffffffffffffffffffffffffffff048311821515161561344b5761344a6135f6565b5b828202905092915050565b6000613461826134f4565b915061346c836134f4565b92508282101561347f5761347e6135f6565b5b828203905092915050565b6000613495826134d4565b9050919050565b60008115159050919050565b60007fffffffff0000000000000000000000000000000000000000000000000000000082169050919050565b600073ffffffffffffffffffffffffffffffffffffffff82169050919050565b6000819050919050565b82818337600083830152505050565b60005b8381101561352b578082015181840152602081019050613510565b8381111561353a576000848401525b50505050565b6000600282049050600182168061355857607f821691505b6020821081141561356c5761356b613654565b5b50919050565b600061357d826134f4565b91507fffffffffffffffffffffffffffffffffffffffffffffffffffffffffffffffff8214156135b0576135af6135f6565b5b600182019050919050565b6000819050919050565b60006135d0826134f4565b91506135db836134f4565b9250826135eb576135ea613625565b5b828206905092915050565b7f4e487b7100000000000000000000000000000000000000000000000000000000600052601160045260246000fd5b7f4e487b7100000000000000000000000000000000000000000000000000000000600052601260045260246000fd5b7f4e487b7100000000000000000000000000000000000000000000000000000000600052602260045260246000fd5b7f4e487b7100000000000000000000000000000000000000000000000000000000600052604160045260246000fd5b6000601f19601f8301169050919050565b6136cc8161348a565b81146136d757600080fd5b50565b6136e38161349c565b81146136ee57600080fd5b50565b6136fa816134a8565b811461370557600080fd5b50565b613711816134f4565b811461371c57600080fd5b5056fe416e204e465420772f20494420257320686173206265656e206d696e74656420746f2025734142434445464748494a4b4c4d4e4f505152535455565758595a6162636465666768696a6b6c6d6e6f707172737475767778797a303132333435363738392b2fa2646970667358221220fcb663971381a96cdfe226cd084585476600182934adbddb6d8491a8fdcd313e64736f6c634300080000333c73766720786d6c6e733d27687474703a2f2f7777772e77332e6f72672f323030302f73766727207072657365727665417370656374526174696f3d27784d696e594d696e206d656574272076696577426f783d273020302033353020333530273e3c7374796c653e2e62617365207b2066696c6c3a2077686974653b20666f6e742d66616d696c793a2073657269663b20666f6e742d73697a653a20323470783b207d3c2f7374796c653e3c726563742077696474683d273130302527206865696768743d2731303025272066696c6c3d27626c61636b27202f3e3c7465787420783d273530252720793d273530252720636c6173733d27626173652720646f6d696e616e742d626173656c696e653d276d6964646c652720746578742d616e63686f723d276d6964646c65273e",
    "linkReferences": {},
    "deployedLinkReferences": {}
}